:020000040800F2
:1000000028080020810200087B27000853270008E9
:10001000792700088122000835330008000000001D
:100020000000000000000000000000006B2E00082F
:10003000F125000800000000012800082D2F00080D
:100040009B0200089B0200089B020008912A0008FE
:100050009B0200089B0200089B0200089B0200080C
:100060009B0200089B0200089B0200089B020008FC
:100070009B0200089B020008B12200089B020008B6
:100080009B0200089B0200089B0200089B020008DC
:100090009B0200089B0200089B0200089B020008CC
:1000A0009B0200089B0200089B0200089B020008BC
:1000B0009B0200089B0200089B0200089B020008AC
:1000C0009B0200089B0200089B0200089B0200089C
:1000D0009B0200089B0200089B02000801310008F7
:1000E000F32500089B0200089B0200089B02000801
:1000F0009B0200089B0200089B0200089B0200086C
:100100009B0200089B0200089B0200089B0200085B
:100110009B0200089B0200089B0200089B0200084B
:100120009B0200089B0200089B0200089B0200083B
:1001300000F002F800F095F80AA090E8000C824464
:100140008344AAF10107DA4501D100F08AF8AFF241
:10015000090EBAE80F0013F0010F18BFFB1A43F0A5
:10016000010318479C340000BC340000103A24BF3F
:1001700078C878C1FAD8520724BF30C830C144BF0C
:1001800004680C607047000000230024002500264E
:10019000103A28BF78C1FBD8520728BF30C148BFEA
:1001A0000B6070476E2900F0ED85702900F02F87F5
:1001B000662903F09B81652903F09881672903F084
:1001C0009581612903F0948103681B0A28BF41F0DF
:1001D0008001692900F08280642900F07F80752900
:1001E00000F07C806F2900F0BC86782900F0FB8647
:1001F000E92900F05786E42900F05486F52900F03B
:100200005186EF2900F0B986F82900F0FA860368D4
:10021000DB0928BF41F08001632901F0498373297C
:1002200001F04E83E32901F05983F32901F05E8345
:10023000002070471FB500F035FC040000200021AD
:1002400003F03EF9401C60600020002103F022F919
:10025000E0600020002103F007F920611FBD10B508
:1002600010BD00F023FF1146FFF7E4FF03F0CAF8CA
:1002700001F060FB03B4FFF7F2FF03BC03F076F874
:100280000948804709480047FEE7FEE7FEE7FEE72A
:10029000FEE7FEE7FEE7FEE7FEE7FEE70448054966
:1002A000054A064B70470000312F00083101000855
:1002B000280200202808002028040020280400200C
:1002C000704700000FB4044910B503AA029800F06B
:1002D0005DFC10BC5DF814FB1C0000202DE9F04112
:1002E0000646002410687529314616A510D000F086
:1002F0000EFD002802DA404213A507E031688A07A4
:1003000001D512A502E0490704D511A5012401E099
:1003100000F006FD00210A2206F1240709E0B0FBE7
:10032000F2FCB0FBF2F302FB1C00303078541846AC
:10033000491C0028F3D123462A463046BDE8F04147
:1003400000F0CABB000000002D0000002B000000E0
:10035000200000002DE9F05F894604464FF0000AB6
:10036000DFF874B1FB44C0F820A02046E16888475C
:10037000002874D0252806D0D4E901219047206AAE
:10038000401C2062F1E700265F462046E16888476E
:100390002028054607DB312D05D2781910F8200CEE
:1003A00008B10643F1E7B00701D526F00406C4F80A
:1003B0001CA00027C4F818A02A2D09D0284602F056
:1003C000CEFF38B304EB8708303DC8F8185019E069
:1003D00059F8041B204604EB87029161E1688847C5
:1003E000012F054618D1E069002820DA26F0200602
:1003F0001DE0D8F8180000EB800005EB4000303815
:10040000C8F818002046E1688847054602F0A7FFB3
:100410000028EED1012F0AD02E2D08D12046E16808
:1004200088477F1C0546022F46F02006C4DBA069E2
:10043000002803DA404246F00106A061F00701D02F
:1004400026F010066C2D0BD0682D09D04C2D39D01C
:100450006A2D35D0742D35D07A2D33D016E038E0A2
:10046000E1682F4620468847B842054609D16C2FDF
:1004700026D04FF48060E168064320468847054651
:1004800004E06C2F1AD04FF4807006430DB3A5F131
:100490004100192802D8203546F400664A4629460C
:1004A000204626604E46FFF77DFE80B101280BD026
:1004B000F61D26F0070000F1080956E74020E4E7A2
:1004C0008020D8E70020D6E706F104094DE728464A
:1004D00052E7206ABDE8F09F8C31000010B5203A49
:1004E000C0F00B80B1E81850203AA0E81850B1E8ED
:1004F0001850A0E81850BFF4F5AF5FEA027C24BFA3
:10050000B1E81850A0E8185044BF18C918C0BDE899
:1005100010405FEA827C24BF51F8043B40F8043B62
:1005200008BF7047D20728BF31F8023B48BF11F817
:10053000012B28BF20F8023B48BF00F8012B704771
:100540004FF000020429C0F0128010F0030C00F0FC
:100550003183CCF1040CBCF1020F18BF00F8012B61
:10056000A8BF20F8022BA1EB0C0100F023BB5FEA2F
:10057000C17C24BF00F8012B00F8012B48BF00F814
:10058000012B7047014900F03BBB00009C0100209B
:1005900010B503681C1404EB21449BB289B21944C2
:1005A00094FBF2F302FB134394FBF2F401EB0343DD
:1005B00093FBF2F102FB113193FBF2F301E05B1EBE
:1005C00011440029FBDB016003EB044010BDF0B5D2
:1005D00004464FF0FF3585B00068049060680290D3
:1005E000A0680390E068019020690090666906F1B8
:1005F0008040B0F1004F7CD83C22002104A8FFF7D6
:10060000C7FF3C22014602A8FFF7C2FF182201469D
:1006100003A8FFF7BDFF411E40F2B55201A8FFF746
:10062000B7FF0C22074668460021FFF7B1FF414B98
:1006300000EB8700304400267B4411E0511A019101
:100640000099491C0229009102D00C2908D105E02B
:10065000810705D00199491C019101E0401C0096D9
:100660000099019A595C9142E8DD0099012906D16F
:100670001C2A04D1810702D00221CDE90016A0F185
:1006800046018B293CD2DDE90061002202E09F5C3B
:10069000521C3944B242FADB012E02DD820700D03F
:1006A000491E40F2B55340F26D16C21700EB92722C
:1006B00092105A4300F0030303FB062283070A4407
:1006C00000D1521E039E02EB4203049F06EBC303BC
:1006D000029EC3EB031306EB8303174E33441E1431
:1006E0009BB2C6EB0616C3EB0313B60007EB8303FE
:1006F00000E005E006EB134666F31F43360C02D01C
:10070000284605B0F0BD80C4029E40C4039E40C48C
:10071000019E761C44F80C6B009E44E902600720A1
:10072000521C92FBF0F600FB162084E823001846CA
:10073000E7E70000C92E0000A039CEFD70B50546E0
:1007400001B90721541A241DB4F5B67F09DD2868C4
:1007500000F05DF9A04204DC2868401C28600120FC
:1007600070BD002C05DA2868401E286000F04FF9A3
:100770000444072094FBF0F0401C70BD2DE9F04FBD
:100780001F4615468B468246002689B000F08AF93E
:10079000D0F810800024BBF1000F70D015F8010BC9
:1007A00010B125280DD10FE024B1641E06A850F821
:1007B0002450F3E7002130460AF8061009B0BDE8DE
:1007C000F08F0AF80600C7E0E94615F8010B592832
:1007D00070D023DC49286ED014DC44286DD008DCAE
:1007E0002528EED041283ED0422849D043282CD19C
:1007F00056E04528E9D0462869D0472876D04828D1
:1008000023D17AE04D380C281FD2DFE800F0881E93
:10081000061E1E9BA0A9B3B5C1CFD6E75A38212822
:1008200013D2DFE800F0111212121212121A263738
:10083000455012592612741212797E1280128912B2
:1008400096A212B3BDCB1100A8E725200AF8060036
:10085000761C5E4513D26D1EA0E7D8F80010BA6969
:10086000D8F8240011E0D8F80410BA69D8F82800A4
:100870000BE0D8F808103A69D8F82C0005E0B2E08F
:10088000D8F80C103A69D8F8300002FB001101EBDF
:100890000809AAE006A840F82450D8F818108AE001
:1008A0007969642091FBF0F21332484668A192E026
:1008B000FA6889E08AE022E0FFE706A840F82450C1
:1008C00065A5641C6AE7FA6866A1484683E006A845
:1008D00040F8245064A5F4E7384600F0ADF86421F0
:1008E00090FBF1F201FB120258E0FFE7384600F0FE
:1008F000A3F802465FA168466DE0BA6864E0B86894
:100900000C210B3090FBF1F201FB120205E0FA69B9
:1009100059A14846521C5EE03A694DA1F9E77A6850
:1009200052E00A2116E0B8680C2802DAD8F8101054
:10093000ADE7D8F81410AAE706A840F82450D8F874
:10094000341038E006A840F824504DA5B9E73A68BD
:100950003AE009210AF80610761C5E45B2D342E05F
:1009600006A840F8245048A5ABE7BA6902B90722A7
:1009700048A1AAE700210CE0786900F26C700890A9
:10098000D7E9061208A8FFF7D9FE06E0BA69EFE733
:100990000121D7E9062000F02EF802462CA1AAE793
:1009A00006A840F82450D8F81C1004E006A840F827
:1009B0002450D8F8201001EB080582E779696420FB
:1009C00091FBF0F200FB121221A17EE77A69484602
:1009D00028A102F26C7200F069F806E00AF806003D
:1009E000761C5E4501D30020E8E619F8010B0028CB
:1009F0003FF4DFAEF2E7511A00D5C91D401A01D508
:100A000000207047072190FBF1F0401C70478107E0
:100A10000CD1642190FBF1F201FB120151B94FF4AA
:100A2000C87190FBF1F201FB120018B1002000F236
:100A30006D1070470120FAE708B5416901F26C7149
:100A40000091D0E906126846FFF778FE009808BDCD
:100A5000252E326400000000256D2F25642F257996
:100A6000000000002532640025592D256D2D2564D8
:100A70000000000025640000252E33640000000003
:100A800025483A254D00000025483A254D3A255382
:100A900000000000252E3164000000007047704700
:100AA0007047704700487047E80100200FB41CB53C
:100AB000084B06AA7B4469460090059800F07BF934
:100AC00004460020694600F089F920461CBC5DF808
:100AD00014FB0000250300002DE9F0470D46994660
:100AE0009246044600F124080168880604D5E069AE
:100AF00021F01001216000E00120A84201DD471B28
:100B000000E00027A1697A1902EB0900081AA06128
:100B10002078C00602D4204600F0D2F8002608E073
:100B2000D4E901211AF806009047206A401C761C7F
:100B300020624E45F4DB2078C0060AD5204600F03E
:100B4000BFF806E0D4E9012130209047206A401C1C
:100B50002062381EA7F10107F4DC07E0D4E9012187
:100B600018F805009047206A401C2062281EA5F155
:100B70000105F3DC204600F0B9F82078000602D524
:100B80000220BDE8F0870120FBE70000074B70B5AD
:100B90000D467B4400F00FF90446284600F042FA67
:100BA00010B14FF0FF3070BD204670BD4B280000E3
:100BB0004FF0000200B5134694469646203922BFF6
:100BC000A0E80C50A0E80C50B1F12001BFF4F7AF41
:100BD000090728BFA0E80C5048BF0CC05DF804EB23
:100BE000890028BF40F8042B08BF704748BF20F891
:100BF000022B11F0804F18BF00F8012B7047000046
:100C000070B50C46016800204A1C3ED03C22B1FB66
:100C1000F2F302FB1313B1FBF2F12360B1FBF2F329
:100C200002FB1313B1FBF2F118226360B1FBF2F384
:100C300002FB1313B1FBF2F146F2E0320A44072142
:100C4000A360B2FBF1F301FB132140F2B553B2FBF9
:100C5000F3F5A161B2FBF3F103FB15228900B2F5B4
:100C6000B77F08D39B10521EB2FBF3F52944B2FBA9
:100C7000F3F503FB15220F4BE261616189077B44A9
:100C80000CD03B2A0AD3521C08E02C212046FFF747
:100C90008FFF0120E0600AE0521A401C195C91426B
:100CA000FAD9521CC4E903204FF0FF3020622046DD
:100CB00070BD00008328000000487047C801002074
:100CC00070B5044685690068C10601D5302600E08C
:100CD0002026C00707D070BDD4E9012130469047D7
:100CE000206A401C20626D1EF6D570BD70B50446AA
:100CF00085690078C00707D170BDD4E901212020A3
:100D00009047206A401C20626D1EF6D570BD0968B0
:100D10004A0501D540B27047C905FCD500B27047FD
:100D200009684A0501D5C0B27047C905FCD580B233
:100D3000704770B50C460546012A05D02878800614
:100D400000D5EA69002302E0012305E05B1C934221
:100D500002D2E05C0028F9D1A869E618C01AA8619F
:100D6000286A184428622846FFF7AAFF04E0D5E95C
:100D7000012114F8010B9047B442F8D32846FFF73D
:100D8000B5FF70BD11680268006A530501D508708F
:100D90000AE0D30501D5088006E0130603D5C21783
:100DA000C1E9000200E008600120704701694A1CA7
:100DB00002610878704700B58FB0CDE9013100219C
:100DC000059105497944CDE9031011466846FFF7BE
:100DD000C1FA0FB000BD0000E5FFFFFF0A6802F88E
:100DE000010B0A60704700002DE9FF5F15468A4637
:100DF0000446DFF8AC80F8440027D8E900103E46EE
:100E0000CDE9001010E03AF816106A4602A800F08A
:100E100071FD411C07D02178890603D5E269391894
:100E200091420DD80744761C2078800602D5E069EF
:100E3000B84205DDAE42E6DB3AF816000028E2D102
:100E4000A069C01BA0612046FFF73AFFD8E9001057
:100E5000CDE90010002017E03AF818106A4602A801
:100E600000F048FDB0F1FF3F81460BD000250DF1A9
:100E7000080B05E0D4E901211BF8050090476D1C23
:100E80004D45F7D308F10100B0428046E4DB206A0B
:100E9000384420622046FFF729FFBDE8FF9F00008D
:100EA0001A2700002DE9F0418046D21D22F00702EA
:100EB0000025D2E90002F52915A614D0011E72F111
:100EC000000106DA0023D0EB030063EB020211A657
:100ED00008E0D8F800108B0701D50FA602E04907FB
:100EE00001D50EA601251146002408F1240704E0CF
:100EF00000F001F930323A55641C50EA0102F7D192
:100F00002B46324621464046BDE8F041FFF7E4BD9E
:100F1000000000002D0000002B0000002000000059
:100F200030B4002100F1240408E002F00705D208E3
:100F3000303542EA4372DB086554491C52EA030526
:100F4000F3D10468002310A2250707D5A40600D416
:100F500021B1C46901230DA2641EC46130BCFFF736
:100F6000BBBD10B5044621461068FFF7D9FE024606
:100F70002046BDE810400023D2E7D21D22F0070131
:100F8000D1E90023CCE700000000000030000000A1
:100F9000F0B40D460188090502D5214C7C4402E0DD
:100FA0001F4C7C440E34002100F1240608E002F0BE
:100FB0000F071209E75D42EA03721B097754491CC7
:100FC00052EA0307F3D102780023120704D5702DEB
:100FD00006D009B1022311342246F0BCFFF77CBDD4
:100FE00001231034F8E770B504460D462146106819
:100FF000FFF796FE024629462046BDE870400023D2
:10100000C6E7D21D22F00703D3E90023C0E7036837
:10101000126843F0200303600823C3610023B7E78D
:101020007C250000007B00F0800070474FF0013C01
:1010300050F8042B51F8043B9A4221D1A2EB0C0347
:10104000934313EACC1317D150F8042B51F8043B07
:101050009A4215D1A2EB0C03934313EACC130BD1A4
:1010600050F8042B51F8043B9A4209D1A2EB0C032F
:10107000934313EACC13DBD04FF00000704700BF5E
:10108000D01A01BAB1FA81F101F0180122FA01F087
:10109000CB40C1F12001DBB2C0B2C01A2CFA01F37F
:1010A000D11A914311EAC311E6D170477546FFF793
:1010B00003FEAE4605006946534620F0070085460C
:1010C00018B020B5FFF7EAF8BDE820404FF0000661
:1010D0004FF000074FF000084FF0000B21F0070120
:1010E000AC46ACE8C009ACE8C009ACE8C009ACE863
:1010F000C0098D46704730B5B0F10A024FEA900E34
:1011000071F100034EEA817EB0EB0E0061EB9101BC
:101110004FEA101E4EEA017E10EB0E0041EB11115A
:101120004FEA102E4EEA016E10EB0E0041EB11213A
:101130004FEA104E4EEA014E10EB0E0041EB11410A
:10114000401841F100014FEAD00040EA41704FEAF7
:10115000D10110EB80054FEA810444EA907444EB1E
:1011600001046D1944EB0404521BA3414FF000032A
:1011700048BF0A3200D530BD401C41F1000130BDEE
:1011800070472DE9FF4F0C461E464FF0FF378BB0DE
:10119000D2E90001DDF860800A908A46C1F30A5561
:1011A00005B93D46002108464FF00000BAF1000F96
:1011B00000F4400005DA00EB80004FF4400101EA42
:1011C00050004FEA9059B9F1010F00DDB9460A9875
:1011D00050EA4A000ED044F61050A5F2FF354543C0
:1011E0002F14B8F1000F1ED07542291E1EDDC9F163
:1011F00000021CE0B8F1010F4FF0000001D03021D7
:1012000003E0F24305E02154401CB042FBDB3046D2
:101210000022002121540B99C1F80880C1E9002067
:101220000FB0BDE8F08FBD1B6D1CDEE74A4600DA4B
:10123000694206A800F0D0FB06AB93E8070003ABB9
:1012400083E8070050460A9900F038FC8DE8070053
:10125000A0F500501F3800900398002D0ADD42F2DF
:101260001F014A460844002303A90390684600F082
:10127000A1FE09E0A0F500504A461F38002303A94B
:101280000390684600F0ABFE8DE807000004000CF8
:1012900003D04FF0FF30410800E01046B8F1000FD6
:1012A00003D00022009215461EE0751E05D4FFF7FC
:1012B00022FF303262556D1EF9D5B3460122084334
:1012C00002D000227F1C04E02078302801D10022C7
:1012D0007F1E002A099784D01DE0112D07DAFFF741
:1012E0000AFF303262556D1C50EA0102F5D1084305
:1012F00002D00098C8B10EE00021681E05E0235C12
:10130000625C63542254401E491C8142F7DBAB46A9
:10131000A81B401E0990002004F80B000B98099AA6
:10132000C0F80880C0E9002B7AE711264FF00008CA
:1013300057E72DE9F04F88460446D21D22F00701F9
:1013400091B0D1E90001CDE90A0101F0F4FF0246B4
:101350000B98C00F01D02D2007E02068810701D530
:101360002B2002E0202101EAC000032A099001D0CD
:10137000072A05DB03464146204600F0EDFA0BE163
:101380002078800601D5E06900E00620B8F1650FFD
:10139000814606D0B8F1660F18D0B8F1670F70D14A
:1013A00031E00020B9F1110F009001DB112301E0C1
:1013B00009F101030AAA01A90CA8FFF7E2FEDDE981
:1013C0000C70002609F10105834647E001204B46D9
:1013D00000904FF000470AAA01A90CA8FFF7D1FE20
:1013E000DDE90DB00C995D46002610B909F1010048
:1013F0000D18B9EB050003D4C0F1FF3609F1010562
:10140000A5EB09002BE0B9F1010F01DA4FF001095A
:101410000020B9F1110F0090484601DD112300E0D2
:1014200003460AAA01A90CA8FFF7ABFEDDE90C7080
:101430004D4600268346207800070AD4AB4500DAE3
:101440005D4601A8012D04DD411911F8011C302968
:1014500007D04F4502DA17F1040F04DA0120824663
:101460000FE06D1EEEE7002F02DCED1B3E4403E0B3
:10147000781CA84200DD7D1CB81B00F1010A4FF06A
:1014800000472078000703D4AA4501DB4FF0FF3A5C
:101490000021B7F1004F0DF143088DF8431024D01F
:1014A00002202B23002F01DA7F422D230A21021E66
:1014B000A0F1010000DC5FB197FBF1FC97FBF1F2BA
:1014C00001FB1C7C17460CF1300C08F801CDEEE74F
:1014D000A8F1010003702188090501D5452100E02C
:1014E0006521A0F1010800F8011C09980FA9A1EBE2
:1014F0000807FF1D00B10120411901EBEA70A16945
:101500003844081A401EA0612078C00602D4204644
:10151000FFF7D6FB099828B1D4E901219047206A4A
:10152000401C20622078C00622D52046FFF7C8FB69
:101530001EE0002E04DBB34502DD01A8805D00E063
:101540003020D4E901219047206A401C2062761C9B
:10155000AAF101005FEA000A0AD1FFF7A3FAC06806
:101560000168405CD4E901219047206A401C206258
:10157000281EA5F10105DCDC07E0D4E9012118F8FB
:10158000010B9047206A401C2062381EA7F101071A
:10159000F3DC2046FFF7AAFB032011B041E6000070
:1015A0002DE9F04F04460D46D21D22F0070089B008
:1015B000D0E900974846394601F0BDFE0246F80FD3
:1015C00001D02D2307E02068810701D52B2302E0FD
:1015D000202101EAC0038DF820300BB1012000E08A
:1015E0000020032A824601D0072A04DB2946204630
:1015F00000F0B2F93FE12078800601D40D2500E02B
:10160000E569C7F30A560D2D49DA00214FEA175B49
:1016100008464FF00000002F00F4400007DA00EB0E
:1016200080004FF4400100EBD07001EA60008115AA
:10163000012901DD4FF0FF3100224FEA850CBCF19A
:10164000180F06D31346ACF118004FF08052C24079
:1016500003E04FF4801323FA0CF30CF10C0CBCF1F3
:10166000200F04D3ACF1200C09FA0CF001E007FACA
:101670000CF000294FF0004801DD18B90FE00ED141
:1016800040450CD319EB02095F4121B9404502D115
:101690009F4329EA0209BBEB175F00D0761C208824
:1016A000000502D57B48784402E07A48784419382E
:1016B00008AA302302F80A30037C0AF10101002E47
:1016C0000AF1020A53546A4602DC4FF0300101E08D
:1016D0004FF031014FF001088DF8001002D0A6F252
:1016E000FF3603E059EA470100D06B4E002D02DCC3
:1016F0002178090704D54FF002082E218DF801103A
:10170000C44600210BE0C7F303433F01C35C491CFF
:101710006D1E02F80830052908F1010801DA002DD4
:10172000F1DC00210CE000EB1973491C1B786D1EE5
:10173000082902F808304FEA091908F1010801DA0E
:10174000002DF0DC21688B0602D516E0A8F1010817
:10175000E04505DD02EB080313F8013C302BF5D022
:10176000B8F1000F09DD02EB080313F8013C2E2B42
:1017700003D1090701D4A8F10108002D05DD3E21A0
:1017800002F808106D1E08F10108407C002E02F8D6
:10179000080008F1010804DA2D20764202F808005A
:1017A00002E02B2002F808000A214FF47A708642EA
:1017B00008F101080BDB96FBF0F3303302F8083038
:1017C00096FBF0F308F1010800FB136601E0642EBC
:1017D0000CDB642096FBF0F3303302F8083096FB04
:1017E000F0F308F1010800FB136601E00A2E06DBA6
:1017F00096FBF1F0303002F8080008F1010896FB82
:10180000F1F001FB1060303002F80800A16908F126
:10181000010808EB050202EB0A00081AA061207813
:10182000C00602D42046FFF74BFA216A08AE01EB4E
:101830000A00206204E0D4E9012116F8010B904768
:10184000BAF1010AF7D22078C00602D52046FFF788
:1018500037FA6E4609E016F8010B3E280FD0D4E99E
:1018600001219047206A401C2062B8F10108F2D2A1
:101870002046FFF73BFA09B00320BDE8F08F206A4D
:101880002844206203E0D4E90121302090476D1EF6
:10189000EBD3F8E7AD1E000002FCFFFF10B5436973
:1018A00013B1AFF3008001E0FFF743FA012010BD50
:1018B000127800F124010A7000224A700122EDE73B
:1018C00011684FF0FF32E9E710B5436913B1AFF388
:1018D000008001E0FFF788FA012010BD128800F1B6
:1018E000240182840022C2840122EDE711684FF0B6
:1018F000FF32E9E770B516460C46054600F024F8BD
:10190000036893F80101012806D0FF2C0FD8185D59
:1019100068B101202C7070BDD3F807013246214612
:1019200003F2071303442846BDE8704018474FF000
:10193000FF3070BD10B50446AFF300802046BDE80F
:101940001040FEF797BC000010B5FFF7ABF8001D84
:1019500010BD00BF6D1B00002DE9F0411F4604467D
:1019600003260168072A01F4006004DB08B116A50C
:1019700005E016A503E008B115A500E015A521F0C6
:1019800010002060A069C01EA0610FB1401EA061C0
:101990002046FFF795F94FB1D4E901213846904729
:1019A000206A401C2062C01C206206E0206AFAE720
:1019B000D4E9012115F8010B9047761EF8D2204694
:1019C000FFF794F9BDE8F0814E414E006E616E0064
:1019D000494E4600696E66002DE9F047814616467D
:1019E0008AB0354878440DC88DE80D0032487844F7
:1019F000801C03AC0DC884E80D0041F69B30084400
:101A0000372190FBF1F290FBF1F5A5F1800501FB88
:101A100012041B3C02D56442012000E00020DFF8E4
:101A200098A080460027FA44AAF1BE0A0EE0E0071B
:101A30000AD03246684607EB470101230AEB8101D1
:101A400000F0CDFA8DE8070064107F1C002CEED169
:101A5000194F7F44AE3F19E0E80715D007EB04109B
:101A60000DF1180A90E80E008AE80E00C068F042F6
:101A700001D1981908903246012306A903A800F065
:101A8000AEFA03AB83E807006D10641C002DE3D1B0
:101A90004FF0010332466946B8F1000F03A802D0A7
:101AA00000F088FA01E000F09AFAC9E90001C9F8EB
:101AB00008200AB0BDE8F087001C00005FEA400C77
:101AC00008BF91F0000F4FEA8C234FEAC12243EA8E
:101AD00051514FEA1C5018BF00F5F0404FEA30005A
:101AE00018BF41F000415FEA6C5C00F02980BCF156
:101AF000FF3F08BF40F080407047130C06BF120440
:101B00004FF0100C4FF0000C130E04BF12020CF13A
:101B1000080C130F04BF12010CF1040C930F04BF47
:101B200092000CF1020CD30F04BF52000CF1010C17
:101B300011464FF00002A0F11F00A0EB0C0070470F
:101B400011F0004F08BF704731F000413FF4D5AFAE
:101B50000B0C06BF09044FF0100C4FF0000C0B0EDD
:101B600004BF09020CF1080C0B0F04BF09010CF1B2
:101B7000040C8B0F04BF89000CF1020CCB0F04BFC7
:101B800049000CF1010CCCF12003A0EB0C0022FA6F
:101B900003F302FA0CF241EA030100F1010070477D
:101BA00020F07F4C80EA030023F07F47ACEB070373
:101BB00003F57C5300F0004003F1FF032DE9804959
:101BC0004FEA154B09B44FEA144325EA0B4E24EAB9
:101BD00003480FF2042606EB132749083E785FEA14
:101BE000320203FB0667C7F5000707FB06F64FEA5C
:101BF00054374FEAD64606F1020607FB066CCCF1D5
:101C0000005C4FEA1C472CEA074C07FB06F40CFB70
:101C100006F504EB15464FEA961634BF00204FF048
:101C200000404FEAD13706FB07FC4FEA1C4C0CFB87
:101C30000BF7D21B03FB0CF761EB07010CFB0EF754
:101C4000B0EB074072EB17420CFB08F734BFA2EB76
:101C50000742B2EB074261EB17414FEA0C444FEAEF
:101C6000910706FB07FC4FEA1C4C0CFB0BF7B0EB93
:101C7000C74072EB573203FB0CF734BFA2EBC742ED
:101C8000B2EBC74261EB57310CFB0EF7B0EBC7006C
:101C900072EB57720CFB08F734BFA2EBC702B2EB32
:101CA000C70261EB5771039F4FEA816141EA9211CC
:101CB00004EBCC044FEAD1374FEA826206FB07FC03
:101CC00042EA90124FEA80604FEA1C4C0CFB0BF783
:101CD000D21B03FB0CF761EB07010CFB0EF7B0EB1B
:101CE000074072EB17420CFB08F734BFA2EB074228
:101CF000B2EB074261EB17414FEA8C554FEA91076F
:101D000004EB9C2406FB07FC4FEA1C4C0CFB0BF776
:101D1000B0EBC74072EB573203FB0CF734BFA2EBBA
:101D2000C742B2EBC74261EB57310CFB0EF7B0EB89
:101D3000C70072EB57720CFB08F734BFA2EBC70267
:101D4000B2EBC70261EB577115EB4C254FEA81618D
:101D500041EA92114FEA82624FEAD13742EA901289
:101D600006FB07FC44F100044FEA80604FEA1C4C7C
:101D70000CFB0BF7D21B03FB0CF761EB07010CFB11
:101D80000EF7B0EB074072EB17420CFB08F734BFBD
:101D9000A2EB0742B2EB074261EB174115EB1C15B2
:101DA0004FEA813141EA92414FEA823242EA90425F
:101DB0004FEA80304FEA0C7644F1000448EA0343CE
:101DC0004EEA0B484FF0000EB2EB080C71EB030724
:101DD00024BF624639464EEB0E0E4FF0000B001842
:101DE000524149414BEB0B0BB2EB080C71EB030773
:101DF0007BF1000B24BF624639464EEB0E0E4FF0CE
:101E0000000B0018524149414BEB0B0BB2EB080C95
:101E100071EB03077BF1000B24BF624639464EEBA2
:101E20000E0E51EA020718BF46F0010616EB0E76B9
:101E300055F1000254F1000103D5BDE88901BDE868
:101E40000088BDE88901BDE80048B619524141EB60
:101E50000101A3F10103704780807F7E7D7C7B7A46
:101E60007978777676757473727171706F6E6E6D46
:101E70006C6C6B6A6A6968686766666564646363EC
:101E800062616160605F5F5E5E5D5D5C5C5B5B5A72
:101E90005A595958585757565655555554545353DF
:101EA00052525251515050504F4F4F4E4E4D4D4D3A
:101EB0004C4C4C4B4B4B4A4A4A4949494848484785
:101EC00047474746464645454544444444434343C3
:101ED0004342424242414141002B9C4630D477006C
:101EE0002BD01CB54FEA370703B44FF010004FF06A
:101EF0001001BAF1000F06D0BCF1000FDCBF40F0BA
:101F0000080040F008014FF000000FBCBDE8104091
:101F10000BF1010BBBF1010F08BF5FEA170722BFEE
:101F200012F1010211F101014FF0004143F10003F0
:101F300000F0004043EA00007047F9D35708D0E7AB
:101F400046EA064613F1400F4FEA16461FDD13F12D
:101F5000200FDFBF16430A46002120335B42BED06C
:101F6000C3F1200746EA064602FA07F74FEA16468B
:101F700046EA0706C3F1200722FA03F201FA07F73F
:101F800021FA03F14FF0000342EA0702A7E746EA0D
:101F9000020646EA06464FEA164646EA0106BCBF76
:101FA00046EA0646360C4FF000034FF000024FF0B1
:101FB000000194E72DE9804C9A46934670B491E86D
:101FC000380007C831EA400C48BF34EA430C03D557
:101FD000FFF7E6FDFFF780FFF0BCBDE8008C2DE9C0
:101FE000804C9A46934670B491E8380007C810F0C8
:101FF000804F08BF13F0804F03D100F005F8FFF7C2
:102000006BFFF0BCBDE8008C20F07F4780EA030046
:1020100023F07F4C07EB0C03A3F57C5300F000404A
:10202000A3F1FE0392F0000F00F0B38095F0000FD3
:1020300000F077802DE901494FEA11404FEA14463C
:1020400021EA004800FB06FC24EA064708FB06F6E6
:1020500007FB08F800FB07F718EB06484CEB164C9B
:102060004FEA124B18EB07484FEA15464CEB174066
:1020700022EA0B4E0BFB06FC25EA06470EFB06F692
:1020800007FB0EFE0BFB07F71EEB064E4CEB164C48
:102090004FF000061EEB074E4CEB174B18EB0B08EE
:1020A00040F1000018EB0E0B58EB000840F1000067
:1020B0008F1A4FF000013CBFC943661B14BFB5EB3C
:1020C000040C00213CBFC943F61B4FEA17444EEAFB
:1020D0008E0E27EA04454FEA1C4704FB07622CEAF0
:1020E000074C05FB07F70CFB05F604FB0CFC16EB95
:1020F000074642EB174216EB0C4642EB1C421BEB29
:10210000060658EB0202414146EA9E0601D5BDE8AB
:102110000189B619524141EB0101A3F10103BDE868
:1021200001894FEA14454FEA114724EA054621EA9E
:10213000074C05FB07F406FB07F70CFB06F105FB54
:102140000CFC11EB074144EB17444FEA124711EB2B
:102150000C4144EB1C4422EA074C05FB07F206FB4A
:1021600007F70CFB06F605FB0CFC16EB074642EBEB
:10217000174216EB0C4642EB1C456A1854F100015D
:1021800048BF7047B619524141EB0101A3F1010369
:10219000704795F0000F37D04FEA11424FEA1447CD
:1021A00021EA024624EA074C02FB07F106FB07F787
:1021B0000CFB06F402FB0CFC14EB074441EB17414B
:1021C0004FEA154714EB0C4441EB1C4125EA074C40
:1021D00002FB07F506FB07F70CFB06F602FB0CFCFF
:1021E00016EB074645EB174516EB0C4645EB1C4234
:1021F000121951F1000148BF7047B619524141EB25
:102200000101A3F1010370474FEA14454FEA11475A
:1022100024EA054621EA074C05FB07F106FB07F710
:102220000CFB06F24FF0000605FB0CFC12EB07421C
:1022300041EB174112EB0C4251EB1C4148BF704778
:10224000921841EB0101A3F10103704710B5012081
:1022500000F0FCFABDE81040002000F0F7BA0000E2
:1022600008B5024908440090008808BD006C004091
:1022700008B5024A10440090016008BD006C00409F
:10228000FEE700000848816941F0080181610748C4
:10229000016800210160026842F04C52026003486C
:1022A0000C3001607047000000100240000C01403B
:1022B00010B54FF40054204600F0A8F8002808D0CC
:1022C000204600F009F8BDE810400021014800F068
:1022D0000FB810BD44000240C10002D50249086099
:1022E0007047024948607047040402400000024001
:1022F0000029016802D041F0010102E04FF6FE72B0
:10230000114001607047000001684FF6FE721140F5
:1023100001600021016041608160C1603149314A42
:102320000839904203D1486840F00F0006E02D4A7A
:102330001432904204D1486840F0F0004860704781
:10234000284A2832904203D1486840F47060F5E78B
:10235000244A3C32904203D1486840F47040EDE793
:10236000204A5032904203D1486840F47020E5E79B
:102370001C4A6432904203D1486840F47000DDE7A3
:10238000184A7832904203D1486840F07060D5E72F
:10239000154A111F904203D1086840F00F0006E073
:1023A000114A1432904204D1086840F0F0000860ED
:1023B00070470D4A2832904203D1086840F470609B
:1023C000F5E7094A3C32904203D1086840F4704076
:1023D000EDE7054A50329042EAD1086840F4702097
:1023E000E5E7000008000240080402400246002021
:1023F000D10001D5034900E003490968114200D02A
:102400000120704700040240000002400246002004
:10241000D10001D5034900E003490968114200D009
:1024200001207047000402400000024030B50268FD
:1024300047F6F0739A430C6A8B682343D1E904454D
:102440002C4323438C692343CC6923434C6A2343A5
:102450008C6A234313430360CA6842600A6882603F
:102460004968C16030BD0000064910B538200870C9
:1024700000F09AFCEE2000F097FCBDE81040EE2042
:1024800000F092BC4400002070B50C4606460121C5
:102490008CB0084600F0B6F9104D2C60104C204668
:1024A000FFF732FF0F48CDE90006002002902968AF
:1024B000CDE903108021CDE905104FF44051CDE95D
:1024C000080107900A9069462046FFF7AFFF0021F8
:1024D0002046FFF70DFF0CB070BD00004800002043
:1024E000440002400C3800404160704710B50D4C6C
:1024F00000212046FFF7FCFE0B49088881B22046E8
:10250000FFF7F2FF01212046FFF7F2FE4FF40054DF
:102510002046FFF76BFF0028FAD02046BDE81040A8
:10252000FFF7DABE44000240480000207FB54FF4B8
:10253000C06000F055F90121092000F07BF94FF44B
:102540008054ADF80C4048208DF80F0003A91048C6
:1025500000F0AAF80C21012000F092F800258DF877
:1025600004500C2000948DF8050001248DF80640DD
:10257000684600F04DF828208DF808008DF80B40D3
:102580008DF809408DF80A5002A800F0F7F87FBDD9
:10259000000C01402DE9F0470125DFF84480114F80
:1025A000114E0224A9464FF0000A18F8041018F83A
:1025B0000500C6F8A49141EA00210CA0E41CED1C22
:1025C000FDF780FE4021384600F018FE0028F9D0C3
:1025D000C6F8A4A1FF2D01DCFF2CE6DDBDE8F087E5
:1025E0004C000020004800400080214225642C005F
:1025F000704710B5FFF738FFBDE810404FF480502A
:10260000AFF30080014908607047000014040140E6
:1026100030B51A4A8379016853B313688B4313604A
:10262000111D0B680468A3430B60017911440B680A
:10263000046823430B60114B083319680468A143F5
:1026400019601C1D21680568A94321604179102982
:1026500005D011440A68006802430A6030BD196859
:10266000026811431960216800680143216030BD90
:102670000079104402688A43026030BD00040140C2
:1026800010B58A0721F003040649120F21440F23D5
:102690008C6893409C438C608B68904003438B60B4
:1026A00010BD000000000140F0B5CC78002204F01D
:1026B0000F03E40601D58C7823430C784FF00F0C00
:1026C00014F0FF0F4FF0010E1BD005680E880EFAB4
:1026D00002F42640A64210D196000CFA06F725EA2D
:1026E000070703FA06F5CE783D43282E02D0482E80
:1026F00002D002E0446100E00461521C082AE5D3E4
:1027000005600A88FF2A1CD94468002202F10806E5
:102710000EFA06F50E882E40AE420ED196000CFA47
:1027200006F7BC4303FA06F7CE783C43282E00D1C7
:102730004561CE78482E00D10561521C082AE5D3A8
:102740004460F0BD0246002092680A4200D0012099
:102750007047FEE708B510208DF803004001ADF882
:10276000000003208DF8020069460248FFF79CFF35
:1027700008BD0000000C0140FEE7704730B50F2394
:10278000C27801780125F2B1144A126801F1E02102
:1027900002F4E062C2F5E062120AC2F10404D3401E
:1027A0004278A24084781C401443220181F800241E
:1027B000007800F01F018D404009800000F1E0200A
:1027C000C0F8005130BD01F01F008540480980006D
:1027D00000F1E020C0F8805130BD00000CED00E0B9
:1027E0000249084302490860704700000000FA05EA
:1027F0000CED00E0014908627047000000000E4245
:1028000070470000044A0029516901D0014300E0EB
:10281000814351617047000000100240044A0029C2
:10282000D16901D0014300E08143D16170470000CC
:1028300000100240044A0029916901D0014300E0E0
:102840008143916170470000001002400149086017
:10285000704700004004424230B5204A5168204B86
:1028600011F00C0103D0042901D0082901D0036024
:1028700012E05168536801F470114FF0020413F430
:10288000803F04EB914102D053689B0301D5154B67
:1028900000E0134B5943016051680F2303EA111103
:1028A000114B5C5C0168E14041605468072505EA12
:1028B00014241C5D21FA04F48460546805EAD424CD
:1028C0001B5DD940C1605268032303EA9232064B74
:1028D0001B1F9A5CB1FBF2F1016130BD0010024098
:1028E00000127A0000093D00240000200346002069
:1028F0005909094A01290AD002290AD0516A03F06C
:102900001F02012393400B4200D001207047116841
:10291000F5E7116AF3E700000010024006490022C3
:1029200081F8202081F82020012802D0042802D13B
:10293000052081F82000704700100240014908601E
:10294000704700003C04424202490A6A02430A629C
:10295000704700000010024002490A8882430A8042
:10296000704700000428004070B501214FF0C050AE
:10297000FFF754FF0120FFF73DFFFFF767FC012041
:10298000FFF7CCFF4120FFF7B1FF0028FAD041202C
:10299000FFF7ACFF1B4C01004FF001001A4E4FF047
:1029A0000005C4F8A40109D018A0FDF78BFC402154
:1029B000304600F023FC0028F9D008E019A0FDF70C
:1029C00081FC4021304600F019FC0028F9D0C4F801
:1029D000A4514FF48070FFF7B7FF0120FFF7AEFF5F
:1029E00000F08AF900F080F90121084600F064F84F
:1029F00000F07AF947F6FF7000F066F9BDE8704024
:102A000000F072B900802142004800400D0A4C538A
:102A100045B5CDCBD9CAB1D6D3B3F5CABCBBAFCDC2
:102A2000EAB3C9000D0A4C5345B5CDCBD9CAB1D6CE
:102A3000D3B3F5CABCBBAFCAA7B0DC00024801885B
:102A400041F01001018070470428004002480188CD
:102A500021F01001018070470428004003480088DD
:102A60000249091F098840EA014070471C280040BC
:102A700006490988C2B21140044A121F1288024254
:102A800002D009B10120704700207047042800409F
:102A900010B50120FFF7ECFF00280AD00120FFF756
:102AA0005BFF00F0E1F803490860BDE8104000F06A
:102AB0001BB910BD40000020044A0029118801D034
:102AC000014300E08143118070470000002800406E
:102AD0002DE9F04100F0B4F80420FFF7C1FB4AF201
:102AE000A55801260027364D364C404530D0C5F854
:102AF000A46135A0FDF7E6FB4021204600F07EFBF7
:102B00000028F9D0C5F8A471FFF72EFFC5F8A4611D
:102B100032A0FDF7D7FB4021204600F06FFB0028D4
:102B2000F9D0C5F8A47100F0C9FAC5F8A46130A0C5
:102B3000FDF7C8FB4021204600F060FB0028F9D0DB
:102B4000C5F8A4714146BDE8F0410420FFF790BBF1
:102B50007B20FFF7CBFE58B1C5F8A46129A0FDF793
:102B6000B1FB4021204600F049FB0028F9D00EE0DF
:102B70007A20FFF7BBFE60B1C5F8A46125A0FDF780
:102B8000A1FB4021204600F039FB0028F9D0C5F810
:102B9000A471C5F8A46125A0FDF794FB402120464F
:102BA00000F02CFB0028F9D0C5F8A47100F0A4F8BF
:102BB00001210846FFF780FFBDE8F04100F094B81E
:102BC00000802142004800400D0A0A20525443CEA2
:102BD000B4C5E4D6C32E2E2E2E0000000D0A2052BE
:102BE0005443CAB1D6D3D2D1C5E4D6C32E2E2E00BB
:102BF0000D0ACAB1BCE4D2D1BEADB5F7D5FB2E2EBD
:102C00002E0000000D0A0AB5E7D4B4C9CFB5E72EEF
:102C10002E2E2E000D0A0A20CDE2B2BFB8B4CEBBD4
:102C2000B4A5B7A22E2E2E2E000000000D0A20CE35
:102C3000DED0E8C5E4D6C35254432E2E2E2E00001B
:102C400008B54FF4A060FFF7CBFD03208DF800001E
:102C500000208DF801008DF8020001208DF803009E
:102C60006846FFF78BFD08BD00B58DB0FFF7F6FE97
:102C700000F5E1400B900BA8FDF784FC01462C22E7
:102C80006846FDF72BFC6B4603A250210548FDF773
:102C900075FD0DB0034800BD25483A254D3A255332
:102CA000000000004C01002000B50246FFF7C6FE00
:102CB0000449100C0880081D02805DF804EBFFF742
:102CC000C5BE00001828004000B50246FFF7B6FE5A
:102CD0000449C2F303400880081D02805DF804EB3C
:102CE000FFF7B4BE08280040024801888906FCD5D9
:102CF00070470000042800400448018821F00801C2
:102D0000018001880907FCD57047000004280040B5
:102D100030B587B001210820FFF78CFD4FF420402B
:102D2000ADF8140018248DF8174003201C4D8DF8C1
:102D3000160005A92846FFF7B7FC4FF4A041ADF8EF
:102D4000141048218DF8171005A92846FFF7ACFC90
:102D500001218803FFF762FD0020ADF80000ADF807
:102D60000E00ADF80400ADF80600ADF80800ADF8AF
:102D70000C404FF4827168150A4CADF80210ADF8A2
:102D80000A006946204600F054F801221146204608
:102D900000F03CF80121204600F02EF807B030BDCD
:102DA000000C01400038004070B506460024114D6B
:102DB00003E0641CE4B2C82C0FD80221284600F0BE
:102DC0002DF80028F5D03146284600F030F80024D0
:102DD00005E0641CE4B2C82C01D9002070BD0121BB
:102DE000284600F01BF80028F3D0284600F01DF814
:102DF000C0B270BD003800400029018802D041F007
:102E0000400101E021F0400101807047002A8288E2
:102E100001D00A4300E08A438280704702460020C6
:102E200012890A4200D00120704780897047818151
:102E3000704730B502884C8802F441530A88CD8827
:102E400022438C882C4322430C8922434C89224301
:102E50008C892243CC8922431A430280828B22F43C
:102E600000628283098A018230BD70470CB500225E
:102E7000264800920192016841F4803101604FF4CC
:102E8000A063016801F4003101910099491C00918F
:102E9000019911B900999942F3D10168890333D599
:102EA000012101911A490A6842F010020A600A6879
:102EB00022F003020A600A6842F002020A604168D6
:102EC000416041684160416841F48061416041680E
:102ED00021F47C114160416841F4E81141600168CE
:102EE00041F08071016001688901FCD5416821F0E1
:102EF00003014160416841F0020141604168C1F352
:102F000081010229FAD10CBD01920CBD00100240D2
:102F1000002002404FF0E0210428086903D020F08F
:102F200004000861704740F00400FAE770470000B1
:102F30000F4810B5016841F00101016041680D4A78
:102F40001140416001680C4A11400160016821F4A0
:102F500080210160416821F4FE0141604FF41F01AE
:102F60008160FFF783FF05494FF00060086010BDE6
:102F7000001002400000FFF8FFFFF6FE08ED00E041
:102F800070B530B1012806D0022806D0032805D13B
:102F900001E01C2102E03C2100E0C0214031CEB222
:102FA0003146102000F080F8BE2000F0FFF9244CDC
:102FB0004FF4805529462046FFF7C4FB0028F9D17D
:102FC0006820FFF7F1FEFE20FFF7EEFEFE20FFF780
:102FD000EBFEFE20FFF7E8FE7820FFF7E5FEFE207F
:102FE000FFF7E2FEFE20FFF7DFFEFE20FFF7DCFE2C
:102FF0003146112000F058F8BE2000F0D7F92946DC
:103000002046FFF79FFB0028F9D16920FFF7CCFE8F
:10301000FE20FFF7C9FEFE20FFF7C6FEFE20FFF7E9
:10302000C3FE7920FFF7C0FEFE20FFF7BDFEFE20A5
:10303000FFF7BAFEBDE87040FE20FFF7B5BE000006
:10304000000C014070B505004FF0040606D0012DBC
:1030500006D0022D06D0032D05D101E01C2402E08C
:103060003C2400E0C0242146102000F01DF801207F
:1030700000F09CF93146202000F016F8012000F005
:1030800095F92146112000F00FF8012000F08EF98B
:103090003146212000F008F8012000F087F9284689
:1030A000BDE87040FFF76CBF10B50C46FFF77CFE23
:1030B0002046BDE81040FFF777BE00000F4810B56E
:1030C00001888CB0A1F26C7105914188491E049170
:1030D00081880391C1880291018901914089009002
:1030E0006846FDF774FAA0F5E144FFF7FDFD2046C0
:1030F000FFF7DAFDFFF7F8FD0CB010BD340000203B
:1031000070B5094C40F225552946204600F07DF85F
:10311000002808D02946204600F00AF8204600F092
:1031200001F90249087070BD00480040000000200D
:10313000C943018070470029818902D041F40051C0
:1031400001E021F4005181817047000010B586B084
:1031500001210820FFF76EFB01218804FFF75EFBC9
:103160004FF48060ADF8100018208DF81300032094
:10317000204C8DF8120004A92046FFF795FAE114BF
:10318000ADF8101004218DF8131004A92046FFF7A4
:103190008BFA4FF4E13000900020ADF80400ADF858
:1031A0000600ADF80800ADF80C000C20124CADF88C
:1031B0000A006946204600F05FF84FF4A060FFF770
:1031C0000FFB27208DF8140001218DF815108DF8C4
:1031D00016108DF8171005A8FFF7D0FA012240F25B
:1031E0002551204600F030F801212046FFF7A3FFCB
:1031F00006B010BD000C014000480040024600200F
:1032000012880A4200D00120704770B501F01F05F6
:1032100001260024C1F3421306FA05F2012B0FD058
:10322000022B0FD0838A4FEA11210088134206FA3D
:1032300001F600EA060001D000B10124204670BD6D
:103240008389F0E7038AEEE710B5C1F3421301F07A
:103250001F040121A140012B07D0022B07D01430FD
:10326000002A026805D00A4304E00C30F8E7103069
:10327000F6E78A43026010BD30B50446008A85B087
:103280000D464CF6FF710840E98801432182A08970
:103290004EF6F3110840A9882A8911436A8902432E
:1032A0001143A181A08A4FF6FF410840A98901433B
:1032B000A1826846FFF7D0FA1948844201D10398E9
:1032C00000E00298A189090400EBC00101EB0010A5
:1032D000296801D5490000E08900B0FBF1F06422C3
:1032E000B0FBF2F109010B096FF018056B4300EB1D
:1032F0008300A3891D044FF0320306D503EBC00001
:10330000B0FBF2F000F0070005E003EB0010B0FBAB
:10331000F2F000F00F000843208105B030BD00003E
:10332000003801408088C0F308007047C1F30801ED
:1033300081807047FEE7490050EAC12018BF042091
:103340004A0D18BF40F0010040F2FF72B2EB515F2E
:1033500008BF40F00200012808BF05207047303840
:103360000A2801D2012070470020704770470000F2
:1033700010B56FF00400FFF7CDFD0948094900685A
:10338000B0FBF1F00849C0B200EB40020870C2EB9C
:10339000C0104FF6FF7202EAC000488010BD000066
:1033A0000400002000127A00180000200B49498810
:1033B00048434FF0E021486100238B61086940F0E9
:1033C000010008610869C20701D0C003FAD5086985
:1033D00020F0010008618B61704700001800002098
:1033E00070B5074D0446C1B22846FFF79FFF802104
:1033F0002846FFF703FF0028F9D0204670BD0000E3
:1034000000480040FFF7B4FFFFF7A0FEFFF7A2F966
:10341000FFF75EFBFEF736FFFFF77AFC4FF480768E
:1034200031460F48FFF730F80120FFF70BFE0D4C37
:1034300020684FF60F75284040F080002060FFF7AD
:1034400075F8FFF753F831460548FDF779F820681D
:1034500028402060FFF74AF8FFF79CF8FEE70000DD
:103460004C0000200C0C014010B500290AD008784F
:10347000002807D005487844FDF7D8FD002801D082
:10348000002010BD0248784410BD0000AA010000D1
:10349000A201000010B500290AD00878002807D042
:1034A00005487844FDF7C2FD002801D0002010BD7A
:1034B0000248784410BD0000FE020000F602000041
:1034C00010B500290AD00878002807D005487844AC
:1034D000FDF7ACFD002801D0002010BD0248784463
:1034E00010BD0000EE020000E6020000FDF721BF63
:1034F000FEF756B8040000080000000000000002BB
:1035000000010000101F1D1F1E1F1E1F1F1E1F1E5B
:103510001F000000000000000000000030313233C6
:1035200034353637383941424344454640305800F7
:103530003031323334353637383961626364656629
:1035400040307800303132333435363738396162C3
:10355000636465667870003031323334353637381D
:1035600039414243444546585000000002400000A3
:10357000000000A00000000005400000000000C89E
:10358000000000000C4000000000409C0000000013
:10359000194000000020BCBE0000000034400000C4
:1035A000BFC91B8E00000004B5400000504BCFD0B7
:1035B0006607E2CF010000006C4100003E8251AA84
:1035C000DFEEA73401000000D9420000DCB5A0E224
:1035D0003A301F97FFFFFFFFB4450000FD25A0C84C
:1035E000E9A3C14FFFFFFFFFFF3F00000000008085
:1035F00000000000FF3F000000000080000000000D
:10360000CC380008000000204C0000006C010008CD
:10361000183900084C000020DC0700008801000871
:103620008001000043000000F8FFFFFF38000000A9
:103630005400000099000000C90000004001000093
:103640004301000046010000550100005E0100003A
:10365000040000000A000000040000000A0000004E
:103660006701000053756E004D6F6E005475650064
:1036700057656400546875004672690053617400B0
:1036800053756E646179000000004D6F6E6461795E
:10369000000000005475657364617900000057658F
:1036A000646E6573646179005468757273646179DE
:1036B000000046726964617900000000536174750E
:1036C00072646179004A616E00466562004D617204
:1036D00000417072004D6179004A756E004A756C48
:1036E0000041756700536570004F6374004E6F763C
:1036F00000446563004A616E75617279000000469E
:103700006562727561727900004D617263680000D4
:10371000000000417072696C00000000004D61798A
:10372000000000000000004A756E65000000000007
:10373000004A756C790000000000004175677573E0
:10374000740000000053657074656D626572004F0F
:1037500063746F6265720000004E6F76656D62651E
:10376000720000446563656D62657200414D0050F2
:103770004D002561202562202565202554202559EE
:1037800000256D2F25642F25790025483A254D3ACF
:1037900025530025493A254D3A2553202570000030
:1037A0001C00000043000000F8FFFFFF0C000000B9
:1037B0000E0000000F0000002E00000010010000AD
:1037C00043000000F8FFFFFF004040404040404001
:1037D00040404141414141404040404040404040E4
:1037E0004040404040404040400502020202020288
:1037F00002020202020202020220202020202020D7
:1038000020202002020202020202909090909090EA
:1038100010101010101010101010101010101010A8
:10382000101010100202020202028888888888881C
:103830000808080808080808080808080808080808
:103840000808080802020202400000000000000010
:103850000000000000000000000000000000000068
:103860000000000000000000000000000000000058
:103870000000000000000000000000000000000048
:103880000000000000000000000000000000000038
:103890000000000000000000000000000000000028
:1038A0000000000000000000000000000000000018
:1038B0000000000000000000000000000000000008
:1038C00000000000000000000000000000000000F8
:1038D00000A24A04000000000000000001020304EE
:1038E00006070809000000000000000002040608A6
:1038F0000000000001020304010203040607080996
:10390000E7070800120017003B0037000000000026
:083910000000000000000000AF
:04000005080002816C
:00000001FF
